{
  "contractName": "TokenDistribution",
  "abi": [
    {
      "constant": true,
      "inputs": [],
      "name": "remainingAllocationForPresale",
      "outputs": [
        {
          "name": "",
          "type": "uint256"
        }
      ],
      "payable": false,
      "stateMutability": "view",
      "type": "function"
    },
    {
      "constant": true,
      "inputs": [
        {
          "name": "",
          "type": "address"
        }
      ],
      "name": "allocations",
      "outputs": [
        {
          "name": "amount",
          "type": "uint256"
        },
        {
          "name": "allocationType",
          "type": "uint8"
        },
        {
          "name": "lockedUntil",
          "type": "uint256"
        },
        {
          "name": "amountClaimed",
          "type": "uint256"
        }
      ],
      "payable": false,
      "stateMutability": "view",
      "type": "function"
    },
    {
      "constant": true,
      "inputs": [],
      "name": "remainingTotalSupply",
      "outputs": [
        {
          "name": "",
          "type": "uint256"
        }
      ],
      "payable": false,
      "stateMutability": "view",
      "type": "function"
    },
    {
      "constant": true,
      "inputs": [],
      "name": "remainingAllocationForDevelopers",
      "outputs": [
        {
          "name": "",
          "type": "uint256"
        }
      ],
      "payable": false,
      "stateMutability": "view",
      "type": "function"
    },
    {
      "constant": true,
      "inputs": [],
      "name": "startTime",
      "outputs": [
        {
          "name": "",
          "type": "uint256"
        }
      ],
      "payable": false,
      "stateMutability": "view",
      "type": "function"
    },
    {
      "constant": true,
      "inputs": [
        {
          "name": "",
          "type": "address"
        }
      ],
      "name": "airdrops",
      "outputs": [
        {
          "name": "",
          "type": "bool"
        }
      ],
      "payable": false,
      "stateMutability": "view",
      "type": "function"
    },
    {
      "constant": true,
      "inputs": [],
      "name": "owner",
      "outputs": [
        {
          "name": "",
          "type": "address"
        }
      ],
      "payable": false,
      "stateMutability": "view",
      "type": "function"
    },
    {
      "constant": false,
      "inputs": [
        {
          "name": "newOwner",
          "type": "address"
        }
      ],
      "name": "transferOwnership",
      "outputs": [],
      "payable": false,
      "stateMutability": "nonpayable",
      "type": "function"
    },
    {
      "constant": true,
      "inputs": [],
      "name": "token",
      "outputs": [
        {
          "name": "",
          "type": "address"
        }
      ],
      "payable": false,
      "stateMutability": "view",
      "type": "function"
    },
    {
      "inputs": [
        {
          "name": "_startTime",
          "type": "uint256"
        }
      ],
      "payable": false,
      "stateMutability": "nonpayable",
      "type": "constructor"
    },
    {
      "anonymous": false,
      "inputs": [
        {
          "indexed": true,
          "name": "to",
          "type": "address"
        },
        {
          "indexed": true,
          "name": "amount",
          "type": "uint256"
        }
      ],
      "name": "Airdrop",
      "type": "event"
    },
    {
      "anonymous": false,
      "inputs": [
        {
          "indexed": true,
          "name": "destination",
          "type": "address"
        },
        {
          "indexed": true,
          "name": "amount",
          "type": "uint256"
        }
      ],
      "name": "AllocationClaimed",
      "type": "event"
    },
    {
      "anonymous": false,
      "inputs": [
        {
          "indexed": true,
          "name": "newOwner",
          "type": "address"
        }
      ],
      "name": "OwnerChanged",
      "type": "event"
    },
    {
      "constant": false,
      "inputs": [
        {
          "name": "_addresses",
          "type": "address[]"
        }
      ],
      "name": "airdrop",
      "outputs": [],
      "payable": false,
      "stateMutability": "nonpayable",
      "type": "function"
    },
    {
      "constant": false,
      "inputs": [
        {
          "name": "_address",
          "type": "address"
        },
        {
          "name": "_amount",
          "type": "uint256"
        },
        {
          "name": "_type",
          "type": "uint8"
        },
        {
          "name": "_lockedUntil",
          "type": "uint256"
        }
      ],
      "name": "addAllocation",
      "outputs": [],
      "payable": false,
      "stateMutability": "nonpayable",
      "type": "function"
    },
    {
      "constant": false,
      "inputs": [
        {
          "name": "_amountToClaim",
          "type": "uint256"
        }
      ],
      "name": "withdrawAllocation",
      "outputs": [],
      "payable": false,
      "stateMutability": "nonpayable",
      "type": "function"
    }
  ],
  "bytecode": "0x6080604052629896806003556012600455600454600a0a6005556101f4600655620f4240600755622dc6c0600855600854600754600354030360095534801561004757600080fd5b5060405160208061207983398101806040528101908080519060200190929190505050336000806101000a81548173ffffffffffffffffffffffffffffffffffffffff021916908373ffffffffffffffffffffffffffffffffffffffff16021790555042811115156100b857600080fd5b306003546004546100c7610175565b808473ffffffffffffffffffffffffffffffffffffffff1673ffffffffffffffffffffffffffffffffffffffff1681526020018381526020018281526020019350505050604051809103906000f080158015610127573d6000803e3d6000fd5b50600260006101000a81548173ffffffffffffffffffffffffffffffffffffffff021916908373ffffffffffffffffffffffffffffffffffffffff1602179055508060018190555050610185565b604051610fff8061107a83390190565b610ee6806101946000396000f3006080604052600436106100ba576000357c0100000000000000000000000000000000000000000000000000000000900463ffffffff16806319d37070146100bf57806352a9039c146100ea5780635bf67731146101645780636bf737271461018f5780636d95b495146101f3578063729ad39e1461021e57806378e97925146102845780638c86f0a7146102af5780638da5cb5b1461030a578063cfde2d6b14610361578063f2fde38b1461038e578063fc0c546a146103d1575b600080fd5b3480156100cb57600080fd5b506100d4610428565b6040518082815260200191505060405180910390f35b3480156100f657600080fd5b5061012b600480360381019080803573ffffffffffffffffffffffffffffffffffffffff16906020019092919050505061042e565b6040518085815260200184600181111561014157fe5b60ff16815260200183815260200182815260200194505050505060405180910390f35b34801561017057600080fd5b5061017961046b565b6040518082815260200191505060405180910390f35b34801561019b57600080fd5b506101f1600480360381019080803573ffffffffffffffffffffffffffffffffffffffff16906020019092919080359060200190929190803560ff16906020019092919080359060200190929190505050610471565b005b3480156101ff57600080fd5b506102086106d6565b6040518082815260200191505060405180910390f35b34801561022a57600080fd5b50610282600480360381019080803590602001908201803590602001908080602002602001604051908101604052809392919081815260200183836020028082843782019150505050505091929192905050506106dc565b005b34801561029057600080fd5b506102996109b7565b6040518082815260200191505060405180910390f35b3480156102bb57600080fd5b506102f0600480360381019080803573ffffffffffffffffffffffffffffffffffffffff1690602001909291905050506109bd565b604051808215151515815260200191505060405180910390f35b34801561031657600080fd5b5061031f6109dd565b604051808273ffffffffffffffffffffffffffffffffffffffff1673ffffffffffffffffffffffffffffffffffffffff16815260200191505060405180910390f35b34801561036d57600080fd5b5061038c60048036038101908080359060200190929190505050610a02565b005b34801561039a57600080fd5b506103cf600480360381019080803573ffffffffffffffffffffffffffffffffffffffff169060200190929190505050610d21565b005b3480156103dd57600080fd5b506103e6610e3f565b604051808273ffffffffffffffffffffffffffffffffffffffff1673ffffffffffffffffffffffffffffffffffffffff16815260200191505060405180910390f35b60085481565b600a6020528060005260406000206000915090508060000154908060010160009054906101000a900460ff16908060020154908060030154905084565b60095481565b610479610e86565b6000809054906101000a900473ffffffffffffffffffffffffffffffffffffffff1673ffffffffffffffffffffffffffffffffffffffff163373ffffffffffffffffffffffffffffffffffffffff161415156104d457600080fd5b600073ffffffffffffffffffffffffffffffffffffffff168573ffffffffffffffffffffffffffffffffffffffff161415151561051057600080fd5b60008411151561051f57600080fd5b6000600a60008773ffffffffffffffffffffffffffffffffffffffff1673ffffffffffffffffffffffffffffffffffffffff1681526020019081526020016000206000015414151561057057600080fd5b6000600181111561057d57fe5b83600181111561058957fe5b14156105c05783600754101515156105a057600080fd5b6105b584600754610e6590919063ffffffff16565b600781905550610615565b6001808111156105cc57fe5b8360018111156105d857fe5b141561060f5783600854101515156105ef57600080fd5b61060484600854610e6590919063ffffffff16565b600881905550610614565b600080fd5b5b60806040519081016040528085815260200184600181111561063357fe5b81526020018381526020016000815250905080600a60008773ffffffffffffffffffffffffffffffffffffffff1673ffffffffffffffffffffffffffffffffffffffff1681526020019081526020016000206000820151816000015560208201518160010160006101000a81548160ff021916908360018111156106b357fe5b021790555060408201518160020155606082015181600301559050505050505050565b60075481565b6000806000809054906101000a900473ffffffffffffffffffffffffffffffffffffffff1673ffffffffffffffffffffffffffffffffffffffff163373ffffffffffffffffffffffffffffffffffffffff1614151561073a57600080fd5b4260015410151561074a57600080fd5b6006546009541015151561075d57600080fd5b600091505b82518210156109b257828281518110151561077957fe5b906020019060200201519050600b60008273ffffffffffffffffffffffffffffffffffffffff1673ffffffffffffffffffffffffffffffffffffffff16815260200190815260200160002060009054906101000a900460ff1615156109a5576001600b60008373ffffffffffffffffffffffffffffffffffffffff1673ffffffffffffffffffffffffffffffffffffffff16815260200190815260200160002060006101000a81548160ff021916908315150217905550610847600654600954610e6590919063ffffffff16565b600981905550600260009054906101000a900473ffffffffffffffffffffffffffffffffffffffff1673ffffffffffffffffffffffffffffffffffffffff1663a9059cbb82600554600654026040518363ffffffff167c0100000000000000000000000000000000000000000000000000000000028152600401808373ffffffffffffffffffffffffffffffffffffffff1673ffffffffffffffffffffffffffffffffffffffff16815260200182815260200192505050602060405180830381600087803b15801561091857600080fd5b505af115801561092c573d6000803e3d6000fd5b505050506040513d602081101561094257600080fd5b8101908080519060200190929190505050151561095e57600080fd5b6006548173ffffffffffffffffffffffffffffffffffffffff167f8c32c568416fcf97be35ce5b27844cfddcd63a67a1a602c3595ba5dac38f303a60405160405180910390a35b8180600101925050610762565b505050565b60015481565b600b6020528060005260406000206000915054906101000a900460ff1681565b6000809054906101000a900473ffffffffffffffffffffffffffffffffffffffff1681565b80600a60003373ffffffffffffffffffffffffffffffffffffffff1673ffffffffffffffffffffffffffffffffffffffff16815260200190815260200160002060000154111515610a5257600080fd5b42600a60003373ffffffffffffffffffffffffffffffffffffffff1673ffffffffffffffffffffffffffffffffffffffff16815260200190815260200160002060020154101515610aa257600080fd5b600a60003373ffffffffffffffffffffffffffffffffffffffff1673ffffffffffffffffffffffffffffffffffffffff16815260200190815260200160002060030154600a60003373ffffffffffffffffffffffffffffffffffffffff1673ffffffffffffffffffffffffffffffffffffffff16815260200190815260200160002060000154111515610b3457600080fd5b610b8981600a60003373ffffffffffffffffffffffffffffffffffffffff1673ffffffffffffffffffffffffffffffffffffffff16815260200190815260200160002060030154610e6590919063ffffffff16565b600a60003373ffffffffffffffffffffffffffffffffffffffff1673ffffffffffffffffffffffffffffffffffffffff16815260200190815260200160002060030181905550600260009054906101000a900473ffffffffffffffffffffffffffffffffffffffff1673ffffffffffffffffffffffffffffffffffffffff1663a9059cbb33836040518363ffffffff167c0100000000000000000000000000000000000000000000000000000000028152600401808373ffffffffffffffffffffffffffffffffffffffff1673ffffffffffffffffffffffffffffffffffffffff16815260200182815260200192505050602060405180830381600087803b158015610c9457600080fd5b505af1158015610ca8573d6000803e3d6000fd5b505050506040513d6020811015610cbe57600080fd5b81019080805190602001909291905050501515610cda57600080fd5b803373ffffffffffffffffffffffffffffffffffffffff167f1747857504b94e5be51b1fe4b467e5d2daa63a0d21577089a13fa99f9414dcc860405160405180910390a350565b6000809054906101000a900473ffffffffffffffffffffffffffffffffffffffff1673ffffffffffffffffffffffffffffffffffffffff168173ffffffffffffffffffffffffffffffffffffffff1614151515610d7d57600080fd5b600073ffffffffffffffffffffffffffffffffffffffff168173ffffffffffffffffffffffffffffffffffffffff1614151515610db957600080fd5b806000806101000a81548173ffffffffffffffffffffffffffffffffffffffff021916908373ffffffffffffffffffffffffffffffffffffffff1602179055508073ffffffffffffffffffffffffffffffffffffffff167fa2ea9883a321a3e97b8266c2b078bfeec6d50c711ed71f874a90d500ae2eaf3660405160405180910390a250565b600260009054906101000a900473ffffffffffffffffffffffffffffffffffffffff1681565b600080838311151515610e7757600080fd5b82840390508091505092915050565b6080604051908101604052806000815260200160006001811115610ea657fe5b8152602001600081526020016000815250905600a165627a7a7230582009703faa095306c70185c4ab782dfddf0646f5e0e0452a03ea4a1344d67427d1002960806040526040805190810160405280601281526020017f466978656420537570706c7920546f6b656e00000000000000000000000000008152506003908051906020019061004f929190610200565b506040805190810160405280600381526020017f46535400000000000000000000000000000000000000000000000000000000008152506004908051906020019061009b929190610200565b503480156100a857600080fd5b5060405160608062000fff833981018060405281019080805190602001909291908051906020019092919080519060200190929190505050600073ffffffffffffffffffffffffffffffffffffffff168373ffffffffffffffffffffffffffffffffffffffff161415151561011c57600080fd5b60008211151561012b57600080fd5b8060058190555080600a0a6006819055506006546298968002600781905550600754600160008573ffffffffffffffffffffffffffffffffffffffff1673ffffffffffffffffffffffffffffffffffffffff168152602001908152602001600020819055508273ffffffffffffffffffffffffffffffffffffffff16600073ffffffffffffffffffffffffffffffffffffffff167fddf252ad1be2c89b69c2b068fc378daa952ba7f163c4a11628f55a4df523b3ef6007546040518082815260200191505060405180910390a35050506102a5565b828054600181600116156101000203166002900490600052602060002090601f016020900481019282601f1061024157805160ff191683800117855561026f565b8280016001018555821561026f579182015b8281111561026e578251825591602001919060010190610253565b5b50905061027c9190610280565b5090565b6102a291905b8082111561029e576000816000905550600101610286565b5090565b90565b610d4a80620002b56000396000f3006080604052600436106100af576000357c0100000000000000000000000000000000000000000000000000000000900463ffffffff16806306fdde03146100bf578063095ea7b31461014f57806318160ddd146101b457806323b872dd146101df578063313ce567146102645780636d6a6a4d1461028f57806370a08231146102ba57806395d89b4114610311578063a9059cbb146103a1578063cae9ca5114610406578063dd62ed3e146104b1575b60003411156100bd57600080fd5b005b3480156100cb57600080fd5b506100d4610528565b6040518080602001828103825283818151815260200191508051906020019080838360005b838110156101145780820151818401526020810190506100f9565b50505050905090810190601f1680156101415780820380516001836020036101000a031916815260200191505b509250505060405180910390f35b34801561015b57600080fd5b5061019a600480360381019080803573ffffffffffffffffffffffffffffffffffffffff169060200190929190803590602001909291905050506105c6565b604051808215151515815260200191505060405180910390f35b3480156101c057600080fd5b506101c9610653565b6040518082815260200191505060405180910390f35b3480156101eb57600080fd5b5061024a600480360381019080803573ffffffffffffffffffffffffffffffffffffffff169060200190929190803573ffffffffffffffffffffffffffffffffffffffff16906020019092919080359060200190929190505050610659565b604051808215151515815260200191505060405180910390f35b34801561027057600080fd5b50610279610786565b6040518082815260200191505060405180910390f35b34801561029b57600080fd5b506102a461078c565b6040518082815260200191505060405180910390f35b3480156102c657600080fd5b506102fb600480360381019080803573ffffffffffffffffffffffffffffffffffffffff169060200190929190505050610792565b6040518082815260200191505060405180910390f35b34801561031d57600080fd5b506103266107aa565b6040518080602001828103825283818151815260200191508051906020019080838360005b8381101561036657808201518184015260208101905061034b565b50505050905090810190601f1680156103935780820380516001836020036101000a031916815260200191505b509250505060405180910390f35b3480156103ad57600080fd5b506103ec600480360381019080803573ffffffffffffffffffffffffffffffffffffffff16906020019092919080359060200190929190505050610848565b604051808215151515815260200191505060405180910390f35b34801561041257600080fd5b50610497600480360381019080803573ffffffffffffffffffffffffffffffffffffffff16906020019092919080359060200190929190803590602001908201803590602001908080601f016020809104026020016040519081016040528093929190818152602001838380828437820191505050505050919291929050505061085f565b604051808215151515815260200191505060405180910390f35b3480156104bd57600080fd5b50610512600480360381019080803573ffffffffffffffffffffffffffffffffffffffff169060200190929190803573ffffffffffffffffffffffffffffffffffffffff1690602001909291905050506109e2565b6040518082815260200191505060405180910390f35b60038054600181600116156101000203166002900480601f0160208091040260200160405190810160405280929190818152602001828054600181600116156101000203166002900480156105be5780601f10610593576101008083540402835291602001916105be565b820191906000526020600020905b8154815290600101906020018083116105a157829003601f168201915b505050505081565b600081600260003373ffffffffffffffffffffffffffffffffffffffff1673ffffffffffffffffffffffffffffffffffffffff16815260200190815260200160002060008573ffffffffffffffffffffffffffffffffffffffff1673ffffffffffffffffffffffffffffffffffffffff168152602001908152602001600020819055506001905092915050565b60075481565b6000600260008573ffffffffffffffffffffffffffffffffffffffff1673ffffffffffffffffffffffffffffffffffffffff16815260200190815260200160002060003373ffffffffffffffffffffffffffffffffffffffff1673ffffffffffffffffffffffffffffffffffffffff1681526020019081526020016000205482111515156106e657600080fd5b81600260008673ffffffffffffffffffffffffffffffffffffffff1673ffffffffffffffffffffffffffffffffffffffff16815260200190815260200160002060003373ffffffffffffffffffffffffffffffffffffffff1673ffffffffffffffffffffffffffffffffffffffff1681526020019081526020016000206000828254039250508190555061077b848484610a07565b600190509392505050565b60055481565b60065481565b60016020528060005260406000206000915090505481565b60048054600181600116156101000203166002900480601f0160208091040260200160405190810160405280929190818152602001828054600181600116156101000203166002900480156108405780601f1061081557610100808354040283529160200191610840565b820191906000526020600020905b81548152906001019060200180831161082357829003601f168201915b505050505081565b6000610855338484610a07565b6001905092915050565b60008084905061086f85856105c6565b156109d9578073ffffffffffffffffffffffffffffffffffffffff16638f4ffcb1338630876040518563ffffffff167c0100000000000000000000000000000000000000000000000000000000028152600401808573ffffffffffffffffffffffffffffffffffffffff1673ffffffffffffffffffffffffffffffffffffffff1681526020018481526020018373ffffffffffffffffffffffffffffffffffffffff1673ffffffffffffffffffffffffffffffffffffffff16815260200180602001828103825283818151815260200191508051906020019080838360005b8381101561096957808201518184015260208101905061094e565b50505050905090810190601f1680156109965780820380516001836020036101000a031916815260200191505b5095505050505050600060405180830381600087803b1580156109b857600080fd5b505af11580156109cc573d6000803e3d6000fd5b50505050600191506109da565b5b509392505050565b6002602052816000526040600020602052806000526040600020600091509150505481565b6000808373ffffffffffffffffffffffffffffffffffffffff1614151515610a2e57600080fd5b81600160008673ffffffffffffffffffffffffffffffffffffffff1673ffffffffffffffffffffffffffffffffffffffff1681526020019081526020016000205410151515610a7c57600080fd5b600160008473ffffffffffffffffffffffffffffffffffffffff1673ffffffffffffffffffffffffffffffffffffffff1681526020019081526020016000205482600160008673ffffffffffffffffffffffffffffffffffffffff1673ffffffffffffffffffffffffffffffffffffffff168152602001908152602001600020540110151515610b0b57600080fd5b600160008473ffffffffffffffffffffffffffffffffffffffff1673ffffffffffffffffffffffffffffffffffffffff16815260200190815260200160002054600160008673ffffffffffffffffffffffffffffffffffffffff1673ffffffffffffffffffffffffffffffffffffffff1681526020019081526020016000205401905081600160008673ffffffffffffffffffffffffffffffffffffffff1673ffffffffffffffffffffffffffffffffffffffff1681526020019081526020016000206000828254039250508190555081600160008573ffffffffffffffffffffffffffffffffffffffff1673ffffffffffffffffffffffffffffffffffffffff168152602001908152602001600020600082825401925050819055508273ffffffffffffffffffffffffffffffffffffffff168473ffffffffffffffffffffffffffffffffffffffff167fddf252ad1be2c89b69c2b068fc378daa952ba7f163c4a11628f55a4df523b3ef846040518082815260200191505060405180910390a380600160008573ffffffffffffffffffffffffffffffffffffffff1673ffffffffffffffffffffffffffffffffffffffff16815260200190815260200160002054600160008773ffffffffffffffffffffffffffffffffffffffff1673ffffffffffffffffffffffffffffffffffffffff1681526020019081526020016000205401141515610d1857fe5b505050505600a165627a7a72305820186db76abb25a396bf8a2092dfc2334d2dd5f0377404c57de5864028679233460029",
  "source": "pragma solidity ^0.4.23;\n\nimport \"mmarinovic-ethereumisc/contracts/Erc20.sol\";\nimport \"mmarinovic-ethereumisc/contracts/Ownable.sol\";\nimport \"mmarinovic-ethereumisc/library/SafeMath.sol\";\nimport \"./FixedSupplyToken.sol\";\n\ncontract TokenDistribution is Ownable{\n\n    using SafeMath for uint256;\n\n    uint public startTime;\n\n    FixedSupplyToken public token;\n    uint private totalSupply = 10000000;\n    uint private decimals = 18;\n    uint private decimalFactor = 10 ** decimals;\n\n    uint private airdropAmount = 500;\n    uint public remainingAllocationForDevelopers = 1000000;\n    uint public remainingAllocationForPresale = 3000000;\n    uint public remainingTotalSupply = totalSupply - remainingAllocationForDevelopers - remainingAllocationForPresale;\n\n    mapping(address => Allocation) public allocations;\n    mapping(address => bool) public airdrops;\n\n    enum AllocationType {\n        Developers,\n        Presale\n    }\n\n    struct Allocation{\n        uint amount;\n        AllocationType allocationType;\n        uint lockedUntil;\n        uint amountClaimed;\n    }\n\n    event Airdrop(address indexed to, uint indexed amount);\n    event AllocationClaimed(address indexed destination, uint indexed amount);\n\n    constructor(uint _startTime) public {\n        require(_startTime > now);\n        token = new FixedSupplyToken(this, totalSupply, decimals);\n\n        startTime = _startTime;\n    }\n\n    function airdrop(address[] _addresses) public onlyOwner {\n        require(startTime < now);\n        require(remainingTotalSupply >= airdropAmount);\n\n        for(uint i = 0; i<_addresses.length; i++){\n            address airdropAddress = _addresses[i];\n            if(!airdrops[airdropAddress]){\n                airdrops[airdropAddress] = true;\n                remainingTotalSupply = remainingTotalSupply.sub(airdropAmount);\n                require(token.transfer(airdropAddress, airdropAmount * decimalFactor));\n                emit Airdrop(airdropAddress, airdropAmount);\n            }\n        }\n    }\n\n    function addAllocation(address _address, uint _amount, AllocationType _type, uint _lockedUntil) public onlyOwner {\n        require(_address != address(0));\n        require(_amount > 0);\n        require(allocations[_address].amount == 0);\n\n        if(_type == AllocationType.Developers){\n            require(remainingAllocationForDevelopers >= _amount);\n            remainingAllocationForDevelopers = remainingAllocationForDevelopers.sub(_amount);\n        }else if(_type == AllocationType.Presale){\n            require(remainingAllocationForPresale >= _amount);\n            remainingAllocationForPresale = remainingAllocationForPresale.sub(_amount);\n        }else{\n            revert();\n        }\n\n        Allocation memory newAllocation = Allocation({\n            amount: _amount,\n            allocationType: _type,\n            lockedUntil: _lockedUntil,\n            amountClaimed: 0\n        });\n\n        allocations[_address] = newAllocation;\n    }\n\n    function withdrawAllocation(uint _amountToClaim) public {\n        require(allocations[msg.sender].amount > _amountToClaim);\n        require(allocations[msg.sender].lockedUntil < now);\n        require(allocations[msg.sender].amount > allocations[msg.sender].amountClaimed);\n\n        allocations[msg.sender].amountClaimed = allocations[msg.sender].amountClaimed.sub(_amountToClaim);\n        require(token.transfer(msg.sender, _amountToClaim));\n        emit AllocationClaimed(msg.sender, _amountToClaim);\n    }\n}",
  "sourcePath": "/Users/markomarinovic/Projects/Personal/eth-token-airdrop/contracts/TokenDistribution.sol",
  "compiler": {
    "name": "solc",
    "version": "0.4.24+commit.e67f0147.Emscripten.clang"
  },
  "schemaVersion": "2.0.1",
  "updatedAt": "2018-11-01T12:38:57.751Z"
}