{
  "contractName": "TokenDistribution",
  "abi": [
    {
      "constant": true,
      "inputs": [],
      "name": "remainingAllocationForPresale",
      "outputs": [
        {
          "name": "",
          "type": "uint256"
        }
      ],
      "payable": false,
      "stateMutability": "view",
      "type": "function"
    },
    {
      "constant": true,
      "inputs": [
        {
          "name": "",
          "type": "address"
        }
      ],
      "name": "allocations",
      "outputs": [
        {
          "name": "amount",
          "type": "uint256"
        },
        {
          "name": "allocationType",
          "type": "uint8"
        },
        {
          "name": "lockedUntil",
          "type": "uint256"
        },
        {
          "name": "amountClaimed",
          "type": "uint256"
        }
      ],
      "payable": false,
      "stateMutability": "view",
      "type": "function"
    },
    {
      "constant": true,
      "inputs": [],
      "name": "remainingTotalSupply",
      "outputs": [
        {
          "name": "",
          "type": "uint256"
        }
      ],
      "payable": false,
      "stateMutability": "view",
      "type": "function"
    },
    {
      "constant": true,
      "inputs": [],
      "name": "remainingAllocationForDevelopers",
      "outputs": [
        {
          "name": "",
          "type": "uint256"
        }
      ],
      "payable": false,
      "stateMutability": "view",
      "type": "function"
    },
    {
      "constant": false,
      "inputs": [],
      "name": "renounceOwnership",
      "outputs": [],
      "payable": false,
      "stateMutability": "nonpayable",
      "type": "function"
    },
    {
      "constant": true,
      "inputs": [],
      "name": "startTime",
      "outputs": [
        {
          "name": "",
          "type": "uint256"
        }
      ],
      "payable": false,
      "stateMutability": "view",
      "type": "function"
    },
    {
      "constant": true,
      "inputs": [
        {
          "name": "",
          "type": "address"
        }
      ],
      "name": "airdrops",
      "outputs": [
        {
          "name": "",
          "type": "bool"
        }
      ],
      "payable": false,
      "stateMutability": "view",
      "type": "function"
    },
    {
      "constant": true,
      "inputs": [],
      "name": "owner",
      "outputs": [
        {
          "name": "",
          "type": "address"
        }
      ],
      "payable": false,
      "stateMutability": "view",
      "type": "function"
    },
    {
      "constant": true,
      "inputs": [],
      "name": "isOwner",
      "outputs": [
        {
          "name": "",
          "type": "bool"
        }
      ],
      "payable": false,
      "stateMutability": "view",
      "type": "function"
    },
    {
      "constant": false,
      "inputs": [
        {
          "name": "newOwner",
          "type": "address"
        }
      ],
      "name": "transferOwnership",
      "outputs": [],
      "payable": false,
      "stateMutability": "nonpayable",
      "type": "function"
    },
    {
      "constant": true,
      "inputs": [],
      "name": "token",
      "outputs": [
        {
          "name": "",
          "type": "address"
        }
      ],
      "payable": false,
      "stateMutability": "view",
      "type": "function"
    },
    {
      "inputs": [
        {
          "name": "_startTime",
          "type": "uint256"
        }
      ],
      "payable": false,
      "stateMutability": "nonpayable",
      "type": "constructor"
    },
    {
      "anonymous": false,
      "inputs": [
        {
          "indexed": true,
          "name": "to",
          "type": "address"
        },
        {
          "indexed": true,
          "name": "amount",
          "type": "uint256"
        }
      ],
      "name": "Airdrop",
      "type": "event"
    },
    {
      "anonymous": false,
      "inputs": [
        {
          "indexed": true,
          "name": "destination",
          "type": "address"
        },
        {
          "indexed": true,
          "name": "amount",
          "type": "uint256"
        }
      ],
      "name": "AllocationClaimed",
      "type": "event"
    },
    {
      "anonymous": false,
      "inputs": [
        {
          "indexed": true,
          "name": "previousOwner",
          "type": "address"
        },
        {
          "indexed": true,
          "name": "newOwner",
          "type": "address"
        }
      ],
      "name": "OwnershipTransferred",
      "type": "event"
    },
    {
      "constant": false,
      "inputs": [
        {
          "name": "_addresses",
          "type": "address[]"
        }
      ],
      "name": "airdrop",
      "outputs": [],
      "payable": false,
      "stateMutability": "nonpayable",
      "type": "function"
    },
    {
      "constant": false,
      "inputs": [
        {
          "name": "_address",
          "type": "address"
        },
        {
          "name": "_amount",
          "type": "uint256"
        },
        {
          "name": "_type",
          "type": "uint8"
        },
        {
          "name": "_lockedUntil",
          "type": "uint256"
        }
      ],
      "name": "addAllocation",
      "outputs": [],
      "payable": false,
      "stateMutability": "nonpayable",
      "type": "function"
    },
    {
      "constant": false,
      "inputs": [
        {
          "name": "_amountToClaim",
          "type": "uint256"
        }
      ],
      "name": "withdrawAllocation",
      "outputs": [],
      "payable": false,
      "stateMutability": "nonpayable",
      "type": "function"
    }
  ],
  "bytecode": "0x6080604052629896806003556012600455600454600a0a6005556101f4600655620f4240600755622dc6c0600855600854600754600354030360095534801561004757600080fd5b5060405160208061228f83398101806040528101908080519060200190929190505050336000806101000a81548173ffffffffffffffffffffffffffffffffffffffff021916908373ffffffffffffffffffffffffffffffffffffffff1602179055506000809054906101000a900473ffffffffffffffffffffffffffffffffffffffff1673ffffffffffffffffffffffffffffffffffffffff16600073ffffffffffffffffffffffffffffffffffffffff167f8be0079c531659141344cd1fd0a4f28419497f9722a3daafe3b4186f6b6457e060405160405180910390a3428111151561013457600080fd5b306003546004546101436101f1565b808473ffffffffffffffffffffffffffffffffffffffff1673ffffffffffffffffffffffffffffffffffffffff1681526020018381526020018281526020019350505050604051809103906000f0801580156101a3573d6000803e3d6000fd5b50600260006101000a81548173ffffffffffffffffffffffffffffffffffffffff021916908373ffffffffffffffffffffffffffffffffffffffff1602179055508060018190555050610201565b6040516110a5806111ea83390190565b610fda806102106000396000f3006080604052600436106100d0576000357c0100000000000000000000000000000000000000000000000000000000900463ffffffff16806319d37070146100d557806352a9039c146101005780635bf677311461017a5780636bf73727146101a55780636d95b49514610209578063715018a614610234578063729ad39e1461024b57806378e97925146102b15780638c86f0a7146102dc5780638da5cb5b146103375780638f32d59b1461038e578063cfde2d6b146103bd578063f2fde38b146103ea578063fc0c546a1461042d575b600080fd5b3480156100e157600080fd5b506100ea610484565b6040518082815260200191505060405180910390f35b34801561010c57600080fd5b50610141600480360381019080803573ffffffffffffffffffffffffffffffffffffffff16906020019092919050505061048a565b6040518085815260200184600181111561015757fe5b60ff16815260200183815260200182815260200194505050505060405180910390f35b34801561018657600080fd5b5061018f6104c7565b6040518082815260200191505060405180910390f35b3480156101b157600080fd5b50610207600480360381019080803573ffffffffffffffffffffffffffffffffffffffff16906020019092919080359060200190929190803560ff169060200190929190803590602001909291905050506104cd565b005b34801561021557600080fd5b5061021e6106ea565b6040518082815260200191505060405180910390f35b34801561024057600080fd5b506102496106f0565b005b34801561025757600080fd5b506102af600480360381019080803590602001908201803590602001908080602002602001604051908101604052809392919081815260200183836020028082843782019150505050505091929192905050506107c2565b005b3480156102bd57600080fd5b506102c6610a55565b6040518082815260200191505060405180910390f35b3480156102e857600080fd5b5061031d600480360381019080803573ffffffffffffffffffffffffffffffffffffffff169060200190929190505050610a5b565b604051808215151515815260200191505060405180910390f35b34801561034357600080fd5b5061034c610a7b565b604051808273ffffffffffffffffffffffffffffffffffffffff1673ffffffffffffffffffffffffffffffffffffffff16815260200191505060405180910390f35b34801561039a57600080fd5b506103a3610aa4565b604051808215151515815260200191505060405180910390f35b3480156103c957600080fd5b506103e860048036038101908080359060200190929190505050610afb565b005b3480156103f657600080fd5b5061042b600480360381019080803573ffffffffffffffffffffffffffffffffffffffff169060200190929190505050610e1a565b005b34801561043957600080fd5b50610442610e39565b604051808273ffffffffffffffffffffffffffffffffffffffff1673ffffffffffffffffffffffffffffffffffffffff16815260200191505060405180910390f35b60085481565b600a6020528060005260406000206000915090508060000154908060010160009054906101000a900460ff16908060020154908060030154905084565b60095481565b6104d5610f7a565b6104dd610aa4565b15156104e857600080fd5b600073ffffffffffffffffffffffffffffffffffffffff168573ffffffffffffffffffffffffffffffffffffffff161415151561052457600080fd5b60008411151561053357600080fd5b6000600a60008773ffffffffffffffffffffffffffffffffffffffff1673ffffffffffffffffffffffffffffffffffffffff1681526020019081526020016000206000015414151561058457600080fd5b6000600181111561059157fe5b83600181111561059d57fe5b14156105d45783600754101515156105b457600080fd5b6105c984600754610e5f90919063ffffffff16565b600781905550610629565b6001808111156105e057fe5b8360018111156105ec57fe5b141561062357836008541015151561060357600080fd5b61061884600854610e5f90919063ffffffff16565b600881905550610628565b600080fd5b5b60806040519081016040528085815260200184600181111561064757fe5b81526020018381526020016000815250905080600a60008773ffffffffffffffffffffffffffffffffffffffff1673ffffffffffffffffffffffffffffffffffffffff1681526020019081526020016000206000820151816000015560208201518160010160006101000a81548160ff021916908360018111156106c757fe5b021790555060408201518160020155606082015181600301559050505050505050565b60075481565b6106f8610aa4565b151561070357600080fd5b600073ffffffffffffffffffffffffffffffffffffffff166000809054906101000a900473ffffffffffffffffffffffffffffffffffffffff1673ffffffffffffffffffffffffffffffffffffffff167f8be0079c531659141344cd1fd0a4f28419497f9722a3daafe3b4186f6b6457e060405160405180910390a360008060006101000a81548173ffffffffffffffffffffffffffffffffffffffff021916908373ffffffffffffffffffffffffffffffffffffffff160217905550565b6000806107cd610aa4565b15156107d857600080fd5b426001541015156107e857600080fd5b600654600954101515156107fb57600080fd5b600091505b8251821015610a5057828281518110151561081757fe5b906020019060200201519050600b60008273ffffffffffffffffffffffffffffffffffffffff1673ffffffffffffffffffffffffffffffffffffffff16815260200190815260200160002060009054906101000a900460ff161515610a43576001600b60008373ffffffffffffffffffffffffffffffffffffffff1673ffffffffffffffffffffffffffffffffffffffff16815260200190815260200160002060006101000a81548160ff0219169083151502179055506108e5600654600954610e5f90919063ffffffff16565b600981905550600260009054906101000a900473ffffffffffffffffffffffffffffffffffffffff1673ffffffffffffffffffffffffffffffffffffffff1663a9059cbb82600554600654026040518363ffffffff167c0100000000000000000000000000000000000000000000000000000000028152600401808373ffffffffffffffffffffffffffffffffffffffff1673ffffffffffffffffffffffffffffffffffffffff16815260200182815260200192505050602060405180830381600087803b1580156109b657600080fd5b505af11580156109ca573d6000803e3d6000fd5b505050506040513d60208110156109e057600080fd5b810190808051906020019092919050505015156109fc57600080fd5b6006548173ffffffffffffffffffffffffffffffffffffffff167f8c32c568416fcf97be35ce5b27844cfddcd63a67a1a602c3595ba5dac38f303a60405160405180910390a35b8180600101925050610800565b505050565b60015481565b600b6020528060005260406000206000915054906101000a900460ff1681565b60008060009054906101000a900473ffffffffffffffffffffffffffffffffffffffff16905090565b60008060009054906101000a900473ffffffffffffffffffffffffffffffffffffffff1673ffffffffffffffffffffffffffffffffffffffff163373ffffffffffffffffffffffffffffffffffffffff1614905090565b80600a60003373ffffffffffffffffffffffffffffffffffffffff1673ffffffffffffffffffffffffffffffffffffffff16815260200190815260200160002060000154111515610b4b57600080fd5b42600a60003373ffffffffffffffffffffffffffffffffffffffff1673ffffffffffffffffffffffffffffffffffffffff16815260200190815260200160002060020154101515610b9b57600080fd5b600a60003373ffffffffffffffffffffffffffffffffffffffff1673ffffffffffffffffffffffffffffffffffffffff16815260200190815260200160002060030154600a60003373ffffffffffffffffffffffffffffffffffffffff1673ffffffffffffffffffffffffffffffffffffffff16815260200190815260200160002060000154111515610c2d57600080fd5b610c8281600a60003373ffffffffffffffffffffffffffffffffffffffff1673ffffffffffffffffffffffffffffffffffffffff16815260200190815260200160002060030154610e5f90919063ffffffff16565b600a60003373ffffffffffffffffffffffffffffffffffffffff1673ffffffffffffffffffffffffffffffffffffffff16815260200190815260200160002060030181905550600260009054906101000a900473ffffffffffffffffffffffffffffffffffffffff1673ffffffffffffffffffffffffffffffffffffffff1663a9059cbb33836040518363ffffffff167c0100000000000000000000000000000000000000000000000000000000028152600401808373ffffffffffffffffffffffffffffffffffffffff1673ffffffffffffffffffffffffffffffffffffffff16815260200182815260200192505050602060405180830381600087803b158015610d8d57600080fd5b505af1158015610da1573d6000803e3d6000fd5b505050506040513d6020811015610db757600080fd5b81019080805190602001909291905050501515610dd357600080fd5b803373ffffffffffffffffffffffffffffffffffffffff167f1747857504b94e5be51b1fe4b467e5d2daa63a0d21577089a13fa99f9414dcc860405160405180910390a350565b610e22610aa4565b1515610e2d57600080fd5b610e3681610e80565b50565b600260009054906101000a900473ffffffffffffffffffffffffffffffffffffffff1681565b600080838311151515610e7157600080fd5b82840390508091505092915050565b600073ffffffffffffffffffffffffffffffffffffffff168173ffffffffffffffffffffffffffffffffffffffff1614151515610ebc57600080fd5b8073ffffffffffffffffffffffffffffffffffffffff166000809054906101000a900473ffffffffffffffffffffffffffffffffffffffff1673ffffffffffffffffffffffffffffffffffffffff167f8be0079c531659141344cd1fd0a4f28419497f9722a3daafe3b4186f6b6457e060405160405180910390a3806000806101000a81548173ffffffffffffffffffffffffffffffffffffffff021916908373ffffffffffffffffffffffffffffffffffffffff16021790555050565b6080604051908101604052806000815260200160006001811115610f9a57fe5b8152602001600081526020016000815250905600a165627a7a723058200dc0edf9570d38cdd9e366162724f8a004113f86b2a3c4196f1eccf945de97f3002960806040526040805190810160405280601281526020017f466978656420537570706c7920546f6b656e0000000000000000000000000000815250600090805190602001906200005192919062000205565b506040805190810160405280600381526020017f4653540000000000000000000000000000000000000000000000000000000000815250600190805190602001906200009f92919062000205565b50348015620000ad57600080fd5b50604051606080620010a5833981018060405281019080805190602001909291908051906020019092919080519060200190929190505050600073ffffffffffffffffffffffffffffffffffffffff168373ffffffffffffffffffffffffffffffffffffffff16141515156200012257600080fd5b6000821115156200013257600080fd5b8060028190555080600a0a6003819055506003548202600581905550600454600660008573ffffffffffffffffffffffffffffffffffffffff1673ffffffffffffffffffffffffffffffffffffffff168152602001908152602001600020819055508273ffffffffffffffffffffffffffffffffffffffff16600073ffffffffffffffffffffffffffffffffffffffff167fddf252ad1be2c89b69c2b068fc378daa952ba7f163c4a11628f55a4df523b3ef6005546040518082815260200191505060405180910390a3505050620002b4565b828054600181600116156101000203166002900490600052602060002090601f016020900481019282601f106200024857805160ff191683800117855562000279565b8280016001018555821562000279579182015b82811115620002785782518255916020019190600101906200025b565b5b5090506200028891906200028c565b5090565b620002b191905b80821115620002ad57600081600090555060010162000293565b5090565b90565b610de180620002c46000396000f3006080604052600436106100af576000357c0100000000000000000000000000000000000000000000000000000000900463ffffffff16806306fdde03146100bf578063095ea7b31461014f57806318160ddd146101b457806323b872dd146101df578063313ce567146102645780636d6a6a4d1461028f57806370a08231146102ba57806395d89b4114610311578063a9059cbb146103a1578063cae9ca5114610406578063dd62ed3e146104b1575b60003411156100bd57600080fd5b005b3480156100cb57600080fd5b506100d4610528565b6040518080602001828103825283818151815260200191508051906020019080838360005b838110156101145780820151818401526020810190506100f9565b50505050905090810190601f1680156101415780820380516001836020036101000a031916815260200191505b509250505060405180910390f35b34801561015b57600080fd5b5061019a600480360381019080803573ffffffffffffffffffffffffffffffffffffffff169060200190929190803590602001909291905050506105c6565b604051808215151515815260200191505060405180910390f35b3480156101c057600080fd5b506101c9610653565b6040518082815260200191505060405180910390f35b3480156101eb57600080fd5b5061024a600480360381019080803573ffffffffffffffffffffffffffffffffffffffff169060200190929190803573ffffffffffffffffffffffffffffffffffffffff1690602001909291908035906020019092919050505061065d565b604051808215151515815260200191505060405180910390f35b34801561027057600080fd5b5061027961078a565b6040518082815260200191505060405180910390f35b34801561029b57600080fd5b506102a4610790565b6040518082815260200191505060405180910390f35b3480156102c657600080fd5b506102fb600480360381019080803573ffffffffffffffffffffffffffffffffffffffff169060200190929190505050610796565b6040518082815260200191505060405180910390f35b34801561031d57600080fd5b506103266107df565b6040518080602001828103825283818151815260200191508051906020019080838360005b8381101561036657808201518184015260208101905061034b565b50505050905090810190601f1680156103935780820380516001836020036101000a031916815260200191505b509250505060405180910390f35b3480156103ad57600080fd5b506103ec600480360381019080803573ffffffffffffffffffffffffffffffffffffffff1690602001909291908035906020019092919050505061087d565b604051808215151515815260200191505060405180910390f35b34801561041257600080fd5b50610497600480360381019080803573ffffffffffffffffffffffffffffffffffffffff16906020019092919080359060200190929190803590602001908201803590602001908080601f0160208091040260200160405190810160405280939291908181526020018383808284378201915050505050509192919290505050610894565b604051808215151515815260200191505060405180910390f35b3480156104bd57600080fd5b50610512600480360381019080803573ffffffffffffffffffffffffffffffffffffffff169060200190929190803573ffffffffffffffffffffffffffffffffffffffff169060200190929190505050610a17565b6040518082815260200191505060405180910390f35b60008054600181600116156101000203166002900480601f0160208091040260200160405190810160405280929190818152602001828054600181600116156101000203166002900480156105be5780601f10610593576101008083540402835291602001916105be565b820191906000526020600020905b8154815290600101906020018083116105a157829003601f168201915b505050505081565b600081600760003373ffffffffffffffffffffffffffffffffffffffff1673ffffffffffffffffffffffffffffffffffffffff16815260200190815260200160002060008573ffffffffffffffffffffffffffffffffffffffff1673ffffffffffffffffffffffffffffffffffffffff168152602001908152602001600020819055506001905092915050565b6000600554905090565b6000600760008573ffffffffffffffffffffffffffffffffffffffff1673ffffffffffffffffffffffffffffffffffffffff16815260200190815260200160002060003373ffffffffffffffffffffffffffffffffffffffff1673ffffffffffffffffffffffffffffffffffffffff1681526020019081526020016000205482111515156106ea57600080fd5b81600760008673ffffffffffffffffffffffffffffffffffffffff1673ffffffffffffffffffffffffffffffffffffffff16815260200190815260200160002060003373ffffffffffffffffffffffffffffffffffffffff1673ffffffffffffffffffffffffffffffffffffffff1681526020019081526020016000206000828254039250508190555061077f848484610a9e565b600190509392505050565b60025481565b60035481565b6000600660008373ffffffffffffffffffffffffffffffffffffffff1673ffffffffffffffffffffffffffffffffffffffff168152602001908152602001600020549050919050565b60018054600181600116156101000203166002900480601f0160208091040260200160405190810160405280929190818152602001828054600181600116156101000203166002900480156108755780601f1061084a57610100808354040283529160200191610875565b820191906000526020600020905b81548152906001019060200180831161085857829003601f168201915b505050505081565b600061088a338484610a9e565b6001905092915050565b6000808490506108a485856105c6565b15610a0e578073ffffffffffffffffffffffffffffffffffffffff16638f4ffcb1338630876040518563ffffffff167c0100000000000000000000000000000000000000000000000000000000028152600401808573ffffffffffffffffffffffffffffffffffffffff1673ffffffffffffffffffffffffffffffffffffffff1681526020018481526020018373ffffffffffffffffffffffffffffffffffffffff1673ffffffffffffffffffffffffffffffffffffffff16815260200180602001828103825283818151815260200191508051906020019080838360005b8381101561099e578082015181840152602081019050610983565b50505050905090810190601f1680156109cb5780820380516001836020036101000a031916815260200191505b5095505050505050600060405180830381600087803b1580156109ed57600080fd5b505af1158015610a01573d6000803e3d6000fd5b5050505060019150610a0f565b5b509392505050565b6000600760008473ffffffffffffffffffffffffffffffffffffffff1673ffffffffffffffffffffffffffffffffffffffff16815260200190815260200160002060008373ffffffffffffffffffffffffffffffffffffffff1673ffffffffffffffffffffffffffffffffffffffff16815260200190815260200160002054905092915050565b6000808373ffffffffffffffffffffffffffffffffffffffff1614151515610ac557600080fd5b81600660008673ffffffffffffffffffffffffffffffffffffffff1673ffffffffffffffffffffffffffffffffffffffff1681526020019081526020016000205410151515610b1357600080fd5b600660008473ffffffffffffffffffffffffffffffffffffffff1673ffffffffffffffffffffffffffffffffffffffff1681526020019081526020016000205482600660008673ffffffffffffffffffffffffffffffffffffffff1673ffffffffffffffffffffffffffffffffffffffff168152602001908152602001600020540110151515610ba257600080fd5b600660008473ffffffffffffffffffffffffffffffffffffffff1673ffffffffffffffffffffffffffffffffffffffff16815260200190815260200160002054600660008673ffffffffffffffffffffffffffffffffffffffff1673ffffffffffffffffffffffffffffffffffffffff1681526020019081526020016000205401905081600660008673ffffffffffffffffffffffffffffffffffffffff1673ffffffffffffffffffffffffffffffffffffffff1681526020019081526020016000206000828254039250508190555081600660008573ffffffffffffffffffffffffffffffffffffffff1673ffffffffffffffffffffffffffffffffffffffff168152602001908152602001600020600082825401925050819055508273ffffffffffffffffffffffffffffffffffffffff168473ffffffffffffffffffffffffffffffffffffffff167fddf252ad1be2c89b69c2b068fc378daa952ba7f163c4a11628f55a4df523b3ef846040518082815260200191505060405180910390a380600660008573ffffffffffffffffffffffffffffffffffffffff1673ffffffffffffffffffffffffffffffffffffffff16815260200190815260200160002054600660008773ffffffffffffffffffffffffffffffffffffffff1673ffffffffffffffffffffffffffffffffffffffff1681526020019081526020016000205401141515610daf57fe5b505050505600a165627a7a7230582035f40f44860e761296567d19b423d91f8c3c2ce7d8b48b77f483cbeef2b7a5da0029",
  "source": "pragma solidity ^0.4.23;\n\nimport \"openzeppelin-solidity/contracts/ownership/Ownable.sol\";\nimport \"openzeppelin-solidity/contracts/math/SafeMath.sol\";\nimport \"./FixedSupplyToken.sol\";\n\ncontract TokenDistribution is Ownable{\n\n    using SafeMath for uint256;\n\n    uint public startTime;\n\n    FixedSupplyToken public token;\n    uint private totalSupply = 10000000;\n    uint private decimals = 18;\n    uint private decimalFactor = 10 ** decimals;\n\n    uint private airdropAmount = 500;\n    uint public remainingAllocationForDevelopers = 1000000;\n    uint public remainingAllocationForPresale = 3000000;\n    uint public remainingTotalSupply = totalSupply - remainingAllocationForDevelopers - remainingAllocationForPresale;\n\n    mapping(address => Allocation) public allocations;\n    mapping(address => bool) public airdrops;\n\n    enum AllocationType {\n        Developers,\n        Presale\n    }\n\n    struct Allocation{\n        uint amount;\n        AllocationType allocationType;\n        uint lockedUntil;\n        uint amountClaimed;\n    }\n\n    event Airdrop(address indexed to, uint indexed amount);\n    event AllocationClaimed(address indexed destination, uint indexed amount);\n\n    constructor(uint _startTime) public {\n        require(_startTime > now);\n        token = new FixedSupplyToken(this, totalSupply, decimals);\n\n        startTime = _startTime;\n    }\n\n    function airdrop(address[] _addresses) public onlyOwner {\n        require(startTime < now);\n        require(remainingTotalSupply >= airdropAmount);\n\n        for(uint i = 0; i<_addresses.length; i++){\n            address airdropAddress = _addresses[i];\n            if(!airdrops[airdropAddress]){\n                airdrops[airdropAddress] = true;\n                remainingTotalSupply = remainingTotalSupply.sub(airdropAmount);\n                require(token.transfer(airdropAddress, airdropAmount * decimalFactor));\n                emit Airdrop(airdropAddress, airdropAmount);\n            }\n        }\n    }\n\n    function addAllocation(address _address, uint _amount, AllocationType _type, uint _lockedUntil) public onlyOwner {\n        require(_address != address(0));\n        require(_amount > 0);\n        require(allocations[_address].amount == 0);\n\n        if(_type == AllocationType.Developers){\n            require(remainingAllocationForDevelopers >= _amount);\n            remainingAllocationForDevelopers = remainingAllocationForDevelopers.sub(_amount);\n        }else if(_type == AllocationType.Presale){\n            require(remainingAllocationForPresale >= _amount);\n            remainingAllocationForPresale = remainingAllocationForPresale.sub(_amount);\n        }else{\n            revert();\n        }\n\n        Allocation memory newAllocation = Allocation({\n            amount: _amount,\n            allocationType: _type,\n            lockedUntil: _lockedUntil,\n            amountClaimed: 0\n        });\n\n        allocations[_address] = newAllocation;\n    }\n\n    function withdrawAllocation(uint _amountToClaim) public {\n        require(allocations[msg.sender].amount > _amountToClaim);\n        require(allocations[msg.sender].lockedUntil < now);\n        require(allocations[msg.sender].amount > allocations[msg.sender].amountClaimed);\n\n        allocations[msg.sender].amountClaimed = allocations[msg.sender].amountClaimed.sub(_amountToClaim);\n        require(token.transfer(msg.sender, _amountToClaim));\n        emit AllocationClaimed(msg.sender, _amountToClaim);\n    }\n}",
  "sourcePath": "/Users/markomarinovic/Projects/Personal/eth-token-airdrop/contracts/TokenDistribution.sol",
  "compiler": {
    "name": "solc",
    "version": "0.4.24+commit.e67f0147.Emscripten.clang"
  },
  "schemaVersion": "2.0.1",
  "updatedAt": "2018-11-21T21:54:53.900Z"
}